:10102A007D347C07ED1D70011C144C70F7EF1F70A6
:06103A00011E144E70EAD5
:01104000228D
:100FF8006176655F766F6C3D252E3366560A00680C
:09100800696768743D25640A0063
:080E9000024B000002490000C2
:100B7800120F4A7FF47E0112102A1210A7120CEAF3
:100B8800E47B107A27F9F8AF44AE43AD42AC41128A
:100B980005A0E47B0AFAF9F81205A0AF03AD07E453
:100BA800FB7F03121011E47BE87A03F9F8AF44AE37
:100BB80043AD42AC411205A0E47B0AFAF9F81205EC
:100BC800A0AF03AD077B017F02121011E47B64FA2A
:100BD800F9F8AF44AE43AD42AC411205A0E47B0A3C
:100BE800FAF9F81205A0AF03AD07E4FB7F01121074
:100BF80011E47B0AFAF9F8AF44AE43AD42AC4112B6
:100C080005A0E47B0AFAF9F81205A0AF03AD07E4E2
:100C1800FBFF121011AF44AE43AD42AC41E41200E9
:100C2800AEE4FBFA797A78441200118F288E278D6A
:100C3800268C257BFF7A0F79F812076BE4F54BF5C4
:100C48004CAF4CEF25E0240AF8E6FC08E6FDEF255A
:100C5800E02408F8A60408A605054CE54C70020532
:100C68004B6407454B70DAE47B64FAF9F8AF44AE9D
:100C780043AD42AC411205A08E498F4AC3E54A9460
:100C880001E549648094805008754900754A0180DF
:100C980013D3E54A9412E549648094804006754967
:100CA80000754A12E54A24FFFFE54934FFFE7C003F
:100CB8007D0212052EAD4CED25E02408F8A60608A5
:100CC800A6077BFF7A107907ED25E02408F8E6F5FA
:100CD8002508E6F52612076B7F647E0012102A02AB
:020CE8000B857A
:100F4A005394FE4393014394F053930F7592FF75A4
:100F5A0091007596FF75950075B2FF75B10075CC55
:100F6A00FF75CB0075E2FF75E10012106B12105885
:030F7A0002104121
:10105800538E7F5389F0758A30758CF8D2A9C28D6A
:03106800D28C2205
:0310A700D2AF22A3
:100E9800023F00000445000000000441000000007B
:10106B0053BCF043BC08C2DEA2DE92DED2DE02101D
:01107B007CF8
:0E107C0043BC807F017E0012102A43BC40223C
:100ED40012107CE5BC30E5FBAFBDEF75F010A4F556
:100EE4004085F03FE5BEC4540F4240AE3FAF407C66
:100EF4000C7DE4120687E4FB7A10F9F81205A08F42
:0B0F0400488E478D468C4553BCDF2211
:100CEA00E4F522F523F524F525F526F52AF529F567
:100CFA0028F527F522C3E52294067480948050557E
:100D0A00120ED4E52A2548F52AE5293547F529E5BD
:100D1A00283546F528E5273545F527AE23AF24E4DF
:100D2A00FCFDAB48AA47A946A845D312064040068F
:100D3A00854723854824AE25AF26E4FCFDAB48AAA7
:100D4A0047A946A845C31206405006854725854847
:100D5A0026052280A0AE23AF24AB07AA06C3E52A44
:100D6A009BFFE5299AFEE5289400FDE5279400FCFF
:100D7A00C006C007AE25AF26AB07AA06D007D00625
:100D8A00C3EF9BFFEE9AFEED9400FDEC9400FCE4A9
:100D9A007B04FAF9F81205A08F448E438D428C41E8
:010DAA002226
:0C108A00FC60DAF266B6BEE0FEF6C69C22
:090EA800041C00000000011B0005
:100FAA0075A0FF741C251BF8E6F5907FFEA81BEFC1
:100FBA0008800123D8FDF5A0051BD3E51B94037413
:090FCA008094804003E4F51B2231
:10101100ED90108A93FEEB60047D0180027D00EE6D
:091021004DFE741C2FF8A60622F6
:030EB100015300EA
:03000B00020E37AB
:100E3700C0E0C0F0C083C082C0D075D000C000C081
:100E470001C002C003C004C005C006C007C28DC2EE
:100E57008C0553E55375F0C884E5F07006120FAAA8
:100E6700120F7D120F0F758CFF758AEBD28CD0078E
:100E7700D006D005D004D003D002D001D000D0D006
:090E8700D082D083D0F0D0E0321B
:080003008F3E12109FAF3E2258
:0110AA002223
:10104100759850438E04438E0175D78F75D6FD4335
:071051008E10C298C2992223
:08109F008F993099FDC29922DE
:100FD3008B4D8A4E894FAB4DAA4EA94F1204D66052
:100FE30013054FE54F7002054E14F91204D6FF1294
:050FF300109F80E222C6
:090EB4000150000151000152003F
:100F7D0030C906E4F551F55222E551701F0552C3F3
:100F8D00E5529414748094804012E4F55275510129
:0D0F9D00E55070047F0180027F008F50221C
:09109600FF7F3F1F0F070301005B
:100EBD0002190001100800010002000300040005E2
:060ECD000006000700080A
:100F0F00E4F518C3E518940874809480502CE4F528
:100F1F00E8E51825E02408F8E6FE08E62496F582B1
:100F2F0074103EF583E493F5F87F80A818EF0880DE
:0B0F3F000103D8FDF5E8051880C92269
:10000E0002012BEC5D046005E85904700302012126
:10001E001200EC580460F6EC4860F2EC7004FDFE41
:10002E00FF22C860DB2481C85009C39860025006C5
:10003E000201289850CAF582E9294B4A7005AB8215
:10004E0002011775F0007C1A7880C3EF9BEE9AEDD3
:10005E0099400DC3EF9BFFEE9AFEED99FDE842F03D
:10006E00DC23ACF0D0E0FFD0E0FED0E0FDAB822090
:10007E00E7101BEB60BAEC2CFCEF33FFEE33FEED1A
:10008E0033FD020103E803F830E705C0F075F00018
:10009E00EF2FFFEE33FEED33FD40B830E7C280AAFE
:1000AE0075F020800E75F010800575F0087D007ECD
:1000BE00007F003392D530D503120632EC33401058
:1000CE00EF33FFEE33FEED33FDEC33FCD5F0ED22D6
:0E00DE00E5F0247EA2D513CC92E7CDCEFF2212
:10070900E5392425F8E605392278223007027825CB
:10071900E475F0011206510204D62000EB7F2ED2B7
:10072900008018EF540F2490D43440D4FF30040BC8
:10073900EF24BFB41A0050032461FFE53A600215A3
:100749003A053DE53D7002053C30070D7822E47518
:10075900F001120651EF02051C0200037403D207CF
:100769008003E4C207F5398B228A238924E4F53A08
:10077900F53CF53DE53A60077F2012074480F575A1
:100789003BFFC201C200C202C203C205C206C208BF
:10079900120712FF700D3007057F00120755AF3D94
:1007A900AE3C22B4255FC2D5C204120712FF24D081
:1007B900B40A00501A75F00A783A30D50508B6FF20
:1007C9000106C6A426F620D5047002D20380D924D6
:1007D900CFB41A00EF5004C2E5D204020A42D20192
:1007E90080C6D20080C0D20280BCD2D580BAD205E0
:1007F90080B47F201207442002077401B53A0040F3
:10080900F1120709FF12074402077DD208D20680B8
:1008190095120709FB120709FA120709F94A4B70E1
:100829000679397A0B7BFF20022EE53A602A7E0091
:100839008E827583001204EF60060EEE653B70F040
:10084900C2D5EBC0E0EAC0E0E9C0E0EE120AA2D0EE
:10085900E0F9D0E0FAD0E0FB1204D6FF60AAEBC0C1
:10086900E0EAC0E0E9C0E0120744D0E02401F9D091
:10087900E03400FAD0E0FBE53B0460DCD53BD980ED
:1008890087D20280A2120A8560F7E53B7001041243
:100899000136A93B600DE53B600914F53B120B2CB1
:1008A900EF60F3EA30E702F404C3995077EAF425DC
:1008B9003B0430E701E404F53B800D120A8560C171
:1008C900EA053B253B120136EA7838F630E701E4C0
:1008D900253B04D53B0420050114120AA2E4C0E01B
:1008E900120B2C7838E6601320E70714F612072C50
:1008F900802204F6D0E014C0E07F0012072CE53B0B
:100909006007120723153B800B300503120723D01C
:10091900E002077DD0E00480C5120A8560A0E53BAE
:10092900041201367838EAF6E53B20050260010435
:050939002404120AA2D3
:10093E0074FF04C0E0120B2C12072CE53B200502BD
:10094E006003120723D0E0B53BE87F4512073678E7
:10095E0038E67F2B30E7047F2DF404C0E012074405
:10096E00D0E075F00A84C0F012072DD0E012072DEA
:10097E0002077D791080027908C206C2088008D26B
:10098E00D5790A8004790AC2D5E53B047002F53B9D
:10099E00E4FAFDFEFF120709FC7B08200113120783
:1009AE0009FD7B1030000A120709FE120709FF7BB2
:1009BE0020EC3382D592D55013C3E43000069FFF4E
:1009CE00E49EFEE42001039DFDE49CFCE4CBF8C212
:1009DE0001EC700CCFCECDCCE824F8F870F3801774
:1009EE00C3EF33FFEE33FEED33FDEC33FCEB33FBA5
:1009FE00994002FB0FD8E9EB300105F8D0E0C4486E
:100A0E00B201C0E00AEC4D4E4F78207B0070C2EA76
:100A1E00B53B0040BCC0E0120AA4D0F0D0E02001EB
:100A2E0004C4C0E0C4B201C0F012072DD0F0D5F05E
:100A3E00EB02077D120661081A5309815807EB4C29
:100A4E0007E74209854F098D44098D49080043097E
:100A5E00935508C446092245088E470B595007EF97
:100A6E002D07F32E08162B07F7230814200B422A06
:100A7E0007AF480000080EE53BB4FF03753B0612B6
:100A8E000709FC120709FD120709FE120709FF7874
:100A9E0031020165790AA2D5200314300509B91077
:100AAE00020404B9080104A2D52006025001042054
:100ABE0002689202B53A005034C0E07F203003192C
:100ACE007F30A20272067205500F120AFBC202C2DA
:100ADE0006C205C2087F30800F300503E9C0E01260
:100AEE000744300503D0E0F9D0E0B53ACC30051715
:100AFE007F30B9100C1207447F583004077F78807E
:100B0E0003B908031207443002057F2D0207447F04
:100B1E00202008F87F2B2006F322920280CF7F0040
:100B2E00B4070050052431F8E6FF22286E756C6C70
:100B3E002900D2011207093001F8C201783A30D5E6
:100B4E000108F60207AF2D50434958120709240336
:100B5E00B405004001E4900B5493120735743A1219
:0A0B6E000735D203753A040209812D
:1000EC00E9D2E7C933E833F892D5EDD2E7CD33EC5A
:0700FC0033FC5002B2D522D3
:10010300EC30E7100FBF000C0EBE00080DBD00045D
:100113000BEB6014A2D5EB13FCED92E7FD2274FF09
:10012300FCFDFEFF22E480F8A2D574FF13FC7D8062
:03013300E480EF76
:10013600F920E72824F950037907E4F42402FB1890
:10014600DBFDE624FB5014E9600DE4F618E604F640
:0F015600B40A08E4F6D9F57401F60A22C2D522DC
:10016500ED33EC3392D5FA602AB4FF33EDC2E77B69
:10017500FF60067A01798AE4227A01799320D50411
:100185007A01798E224E614E002B494E46002D494B
:100195004E4600E47A08F608DAFC7B00740722E88C
:1001A500C0E0ECC0E0EDC0E0EEC0E0EFC0E0EA7515
:1001B500F010A4CAABF075F04DA42BFBE435F0FCB0
:1001C500EA2410FAEB34C5FBEC34D9FCEDC2E7FFA9
:1001D50075F056A4F42411C5F0F434C58FF0A42AA3
:1001E500E5F03BE43CF620E714120496D0E0FFD09E
:1001F500E0FED0E0FDD0E0FC1200118014F4041202
:100205000496D0E0FFD0E0FED0E0FDD0E0FC120384
:1002150060D0E0F8E6FAEDD2E7CD33EC332482FB8B
:10022500E4C3CF33CFCE33CECD33CD33DBF37B0732
:1002350075F00A846004F6081B0AE5F0F6088FF0ED
:10024500740AA4FFACF08EF0740AA42CFEACF05036
:10025500010C8DF0740AA42CFDE435F0F608DBDE04
:03026500740722F9
:10026800020121E86480F8E933E83360110460F0A2
:10027800ED33EC337009E8FCE9FDEAFEEBFF2204FC
:1002880060DED3EB9FEA9EE99DE8C2E78CF0C2F7F7
:1002980095F0400CE8CCF8E9CDF9EACEFAEBCFFBC3
:1002A8001200EC85D0F05804700320D5B3E8047030
:1002B800075002B2D502012B92D5EC0460F7E4CCCA
:1002C800C0E0C398F8603B94186008400DD0E0FB8C
:1002D800020103E4FBFAC9FC8028E830E406E4C91B
:1002E800FBE4CAFCE830E305E4C9CACBFCE85407E0
:1002F8006010F8C3E913F9EA13FAEB13FBEC13FCEB
:10030800D8F130F52FC3E49CFCEF9BFFEE9AFEED8D
:1003180099FDD0E0FBEF4E4D4C701222DB03020139
:1003280028EC2CFCEF33FFEE33FEED33FDED30E728
:10033800EB020103EF2BFFEE3AFEED39FDD0E0FBB7
:1003480050130BBB000302012BED13FDEE13FEEF60
:0803580013FFEC13FC0201038A
:10036000EC4D6011E8497017ED33EC3304600DE497
:10037000FCFFFEFD22E933E8330470F8020121128C
:1003800000EC58046009E4CC24815006285009028E
:10039000012B284003020128C0E0EB4A7044B980D9
:1003A00006D0E0FB020117EF4E701CBD8008EBFF8A
:1003B000EAFEE9FD80EBE98DF0A4FEE5F0020449D8
:1003C000E9CDF9EAFEEBFFEF89F0A4FCE5F0CE8978
:1003D000F0A42EFFE435F0CD89F0A42DFEE435F035
:1003E0008067EF4E7005BD80D780C3EF8BF0A4AC63
:1003F000F0EE8BF0A42CFCE435F0F8EF8AF0A42C9E
:10040000E5F038FCE433CB8DF0A42CFCE5F03BF8B0
:10041000EE8AF0A42CFCE5F038F8E433CF89F0A4A0
:100420002CFCE5F038CF3400CE89F0A42FFFE5F0A6
:100430003EFEE433C98DF0A42EFEE5F039CD8AF0FE
:10044000A42FFFE5F03EFEE43DFD33D0E0FB500776
:100450000BBB000F02012BEC2CFCEF33FFEE33FE45
:06046000ED33FD02010373
:100466003F8000004120000042C80000447A00009E
:10047600461C400047C35000497424004B18968020
:100486004CBEBC205A0E1BCA6753C21C749DC5AE17
:10049600FB60065407601C23231204C4EB54386027
:1004A600091204B01204BF120360ECF8EDF9EEFA7B
:1004B600EFCB22EB1204BF80F1543803241C9004C6
:1004C60066FE93FC0EEE93FD0EEE930ECE93FF2288
:03000000020DAB43
:0C0DAB00787FE4F6D8FD758153020DF24C
:1004D600BB010689828A83E0225002E722BBFE0224
:0904E600E32289828A83E4932257
:1004EF00BB010CE58229F582E5833AF583E02250C2
:1004FF0006E92582F8E622BBFE06E92582F8E2220C
:0D050F00E58229F582E5833AF583E4932225
:10051C00BB010689828A83F0225002F722BBFE01BE
:02052C00F322B8
:10052E00C2D5EC30E709B2D5E4C39DFDE49CFCEEE8
:10053E0030E715B2D5E4C39FFFE49EFE1206B4C3A6
:10054E00E49DFDE49CFC80031206B430D507C3E4A1
:06055E009FFFE49EFE2257
:1005640075F008758200EF2FFFEE33FECD33CDCC4E
:1005740033CCC58233C5829BED9AEC99E5829840D1
:100584000CF582EE9BFEED9AFDEC99FC0FD5F0D6AE
:10059400E4CEFBE4CDFAE4CCF9A88222B800C1B9D8
:1005A4000059BA002DEC8BF084CFCECDFCE5F0CB16
:1005B400F97818EF2FFFEE33FEED33FDEC33FCEB4F
:1005C40033FB10D703994004EB99FB0FD8E5E4F90A
:1005D400FA227818EF2FFFEE33FEED33FDEC33FCF7
:1005E400C933C910D7059BE99A4007EC9BFCE99AEB
:1005F400F90FD8E0E4C9FAE4CCFB2275F010EF2F30
:10060400FFEE33FEED33FDCC33CCC833C810D7072F
:100614009BEC9AE899400AED9BFDEC9AFCE899F86A
:0E0624000FD5F0DAE4CDFBE4CCFAE4C8F922FD
:0E063200C3E49FFFE49EFEE49DFDE49CFC22D9
:10064000EB9FF5F0EA9E42F0E99D42F0E89C45F010
:010650002287
:10065100FAE6FB0808E6F925F0F618E6CA3AF622AA
:10066100D083D082F8E4937012740193700DA3A328
:1006710093F8740193F5828883E47374029368603C
:06068100EFA3A3A380DF3C
:10068700EC8EF0A4CCC5F0CCCDF8EFA4CEC5F02D00
:10069700FDE43CFCE8A42EC8C5F03DFDE43CFCEFBE
:0D06A700A4FFE5F028FEE43DFDE43CFC224C
:100DB700020B78E493A3F8E493A34003F68001F2CF
:100DC70008DFF48029E493A3F85407240CC8C3333D
:100DD700C4540F4420C8834004F456800146F6DF0C
:100DE700E4800B0102040810204080900E90E47EFE
:100DF700019360BCA3FF543F30E509541FFEE49301
:100E0700A360010ECF54C025E060A840B8E493A3C7
:100E1700FAE493A3F8E493A3C8C582C8CAC583CAF2
:100E2700F0A3C8C582C8CAC583CADFE9DEE780BEAA
:010ED300001E
:1006B400BC000BBE0029EF8DF084FFADF022E4CC2A
:1006C400F875F008EF2FFFEE33FEEC33FCEE9DECF3
:1006D400984005FCEE9DFE0FD5F0E9E4CEFD22ED39
:1006E400F8F5F0EE8420D21CFEADF075F008EF2F83
:1006F400FFED33FD4007985006D5F0F222C398FD74
:050704000FD5F0EA2210
:00000001FF
